:020000040800F2
:1000000020230020C5360008810A0008830A000862
:10001000870A00088B0A00088F0A00080000000009
:10002000000000000000000000000000930A00082B
:10003000950A000800000000970A0008BB0A0008A3
:10004000DF360008DF360008DF3600084B0B0008FB
:10005000DF360008DF360008DF360008DF3600082C
:10006000DF360008DF360008DF360008DF3600081C
:10007000DF360008DF360008DF360008DF3600080C
:10008000DF360008DF360008DF360008DF360008FC
:10009000DF360008DF360008DF360008DF360008EC
:1000A000DF360008DF360008DF360008DF360008DC
:1000B000890B0008DF360008DF360008DF3600084D
:1000C000DF360008DF360008DF360008DF360008BC
:1000D000DF360008F70A0008130B00082F0B000892
:1000E000DF360008590B0008DF360008DF3600084D
:1000F000DF360008DF360008DF360008DF3600088C
:10010000DF360008DF360008DF360008DF3600087B
:10011000DF360008DF360008DF360008DF3600086B
:10012000DF360008DF360008DF360008DF3600085B
:10013000DFF80CD006F0F4FB004800470107000888
:100140002023002010B5FAA006F0CCFE4FF00004EA
:1001500006E0F948015DF9A006F0C4FE04F10104CF
:100160000F2CF6D3F6A006F0BDFEF6A006F0BAFE00
:100170004FF0000406E0F648015DF6A006F0B2FE7E
:1001800004F10104112CF6D3EDA006F0ABFE10BD76
:1001900010B5F2A006F0A6FE4FF0000406E0F2480B
:1001A000015DECA006F09EFE04F101042A2CF6D3BA
:1001B000E3A006F097FE10BD10B54FF00100EB492B
:1001C00008804FF00000EA4908804FF00F02014616
:1001D000D94806F0DDF84FF0000405E04FF00000CC
:1001E000DB49085504F10104112CF7D34FF000044A
:1001F00005E04FF00000DC49085504F101042A2C09
:10020000F7D318220021DB4806F0C2F82A22002189
:10021000D94806F0BDF80D220021D84806F0B8F8FC
:1002200014220021D64806F0B3F806220021D54852
:1002300006F0AEF810BD70B54FF0000500BF2C46BB
:1002400007E0CD48005DC849485505F1010504F1B6
:100250000104022CF5D3C8488078C349485505F1FC
:1002600001054FF0000408E0C348C01C005DBE4912
:10027000485505F1010504F10104022CF4D34FF0B7
:10028000000408E0BC48401D005DB749485505F131
:10029000010504F10104022CF4D34FF0000408E03E
:1002A000B548C01D005DB049485505F1010504F190
:1002B0000104042CF4D34FF0000408E0AE480B30E6
:1002C000005DA949485505F1010504F10104042C1C
:1002D000F4D34FF0000408E0A7480F30005DA249B6
:1002E000485505F1010504F10104042CF4D3A2489A
:1002F000C07C9D49485505F101054FF0000408E018
:100300009D481430005D9849485505F1010504F1F8
:100310000104022CF4D34FF0000408E09648163094
:10032000005D9149485505F1010504F10104092CCE
:10033000F4D39148C07F8C49485505F101054FF031
:10034000000408E08C482030005D8749485505F1DD
:10035000010504F10104022CF4D34FF0000408E07D
:1003600085482230005D8049485505F1010504F1BA
:100370000104022CF4D34FF0000408E07E4824303E
:10038000005D7949485505F1010504F10104022C8D
:10039000F4D34FF0000408E077482630005D72493E
:1003A000485505F1010504F10104022CF4D34FF086
:1003B000000408E070482830005D6B49485505F19D
:1003C000010504F10104022CF4D32A2D02D06EA001
:1003D00006F088FD70BD01464FF06702664B1A704B
:1003E0005A704FF002029A704FF00002DA704FF02C
:1003F0002503614A13714FEA11225F4B5A711A4665
:1004000091714FF0000009E0C0F103025C4B9B5C6E
:10041000594A02F10702135400F101000428F3D3F2
:100420004FF000000BE0C0F10303554A02F1040253
:10043000D35C514A02F10B02135400F1010004286D
:10044000F1D34FF000000BE0C0F103034C4A02F17E
:100450000802D35C484A02F10F02135400F1010074
:100460000428F1D3464A127B434BDA744FF0000064
:100470000BE0C0F10103424A02F10E02D35C3E4A96
:1004800002F11402135400F101000228F1D34FF0DD
:10049000000006E0394A135C374A1632135400F163
:1004A00001000928F6D3364A127C334BDA774FF035
:1004B000000006E0334A135C2F4A2032135400F147
:1004C00001000228F6D34FF0000007E02B4A093262
:1004D000135C294A2232135400F101000228F5D39B
:1004E0004FF0000007E0254A0B32135C224A243209
:1004F000135400F101000228F5D34FF0000007E08B
:10050000204A921C135C1C4A2632135400F101004D
:100510000228F5D34FF0000007E01A4A121D135CC1
:10052000154A2832135400F101000228F5D3704710
:10053000494D45493A0000005C01002025632D002B
:100540000D0A00004C4F47494E204D53473A0000DA
:1005500083010020307825782D000000475053207B
:100560004D53473A00000000BE0100200E0000205D
:10057000100000206B01002094010020E801002001
:10058000F8010020040000205061636B4770734D38
:100590007367204552524F52210A000070B54FF048
:1005A000000400BF254607E0F848405DF8490855BB
:1005B00004F1010405F10105022DF5D3F34880781B
:1005C000F349085504F101044FF0000508E0EF4835
:1005D000C01C405DEE49085504F1010405F1010518
:1005E000022DF4D34FF0000508E0E848401D405DBF
:1005F000E749085504F1010405F10105022DF4D382
:100600004FF0000508E0E148C01D405DE049085595
:1006100004F1010405F10105082DF4D3DB48807DC8
:10062000DB49085504F10104D848C07D085504F1A0
:100630000104112C02D0D7A006F054FC70BD70B597
:1006400004460D4602EBD2764FEA660606F1010635
:100650009E4201DB0F2A01D0552070BD207800F0AA
:100660000F002870104602EBD0764FEA66010FE0CB
:1006700004EB410010F8010C4FF0F00606EA001000
:1006800014F8116006F00F0630446854A1F101011E
:100690000029EDD1AA20E0E770B505460C464FF0E1
:1006A0006700BA49087048704FF0010088704FF039
:1006B0000000C8704FF00C01B44801714FEA1420DB
:1006C000B2494871084684714FF008034FF00F0299
:1006D00000F107012846FFF7B2FF552808D10F2285
:1006E0000021AA48C01D05F053FEB0A006F0FAFB99
:1006F0004FF00100A54988754FF02000C87570BD06
:10070000A2B04FF000054FF001044FF0000600F0DA
:1007100099FC03F03CFB03F0C9FF00F09DFA0121B6
:100720004FF0C05001F05BFA012001F063F80120A6
:1007300001F04FF800F0CAFA00F017FB00F0F3FAEE
:1007400000F09EFB00F029FB00F0B3FB00F019FC69
:10075000002002F0BEFE00F019FC002002F0DAFFDB
:1007600000F037FC012002F0D5FF00F055FC00F04E
:10077000D2FBFFF721FD03F003FB3CE0642000F017
:100780003FFA10A803F00AFB044634B9002002F037
:10079000A0FE8CA006F0A6FB2EE0032C06D10020C4
:1007A00002F08FFE8CA006F09DFB05E0002002F019
:1007B00088FE8EA006F096FB05F10100C5B2042D5F
:1007C00001DD00BF18E0012001F0F5FA00BF0120B3
:1007D00001F0E4FA0028FAD001F08AFA00F10A07E1
:1007E000384601F0AAFA01F0C3FA0121084601F0E7
:1007F00004F800F07AFAC1E700BF03F050FFA7E069
:100800004FF001007D4908804FF000007C490880CE
:10081000064604F0FFFC04F082FB04F0E1FB04F068
:1008200034FC04F006FC04F020FC04F054FC04F05A
:1008300083FC04F06BFC04F0BCFC00BF714804F0C6
:1008400095F80028FAD16D4801886E48FFF724FF1B
:10085000FFF7A4FE05E0002002F043FE6AA006F0C8
:1008600041FB11214A4804F0B9FF0028F3D100BF31
:100870006D4804F0A7F80028FAD162E010A803F050
:100880008DFA04461CB94FA006F02CFB5AE0032C4D
:1008900003D151A006F026FB07E04622002110A854
:1008A00005F076FD51A006F01DFB6048362214A924
:1008B0000E90684605F05AFD10A80FC803F098FB8B
:1008C0005948006801460F90594805F080FB4B4895
:1008D0000088FFF780FDFFF7AEFC2A21554804F0A1
:1008E0007DFF012811D1002002F0FBFD06F101007F
:1008F000C6B20A2E06DD4FF0000605F06AF805F0D4
:1009000077F81FE04CA006F0EDFA3D48008800F1B2
:1009100001003B49088008460088042800DD11E0FA
:10092000FFF736FC3548008800F1010033490880A4
:100930000846008810B94FF001000880642000F0DC
:100940005FF99BE700BF2E480088042800DD00E027
:1009500056E700BF3DA006F0C5FA03F018FA03F011
:10096000A5FE012001F027FA00BF012001F016FAD0
:100970000028FAD001F0BCF900F17807384601F000
:10098000DCF901F0F5F900F055FF77E06B0100208C
:10099000830100205061636B4C6F67696E4D736714
:1009A000204552524F52210A00000000494D45494E
:1009B0002070726F63657373204552524F52210A43
:1009C0000000000047505320526563762053756342
:1009D00063657373210A00004750532052656376A4
:1009E00020496E76616C69640A000000475053200C
:1009F00052656376204572726F720A000E00002005
:100A0000100000205C010020475052535F53656E78
:100A10006444617461204C4F47494E204D53472038
:100A20004661696C0A0000000A000020F8010020FD
:100A3000E8010020BE010020475052535F53656E0D
:100A40006444617461204661696C0A00746869736A
:100A5000206265696E6720696E206E6F726D616CD1
:100A6000207374616E646279206D6F64650A0000A2
:100A7000002002F036FD642000F0C2F8F8E7000024
:100A8000704700BFFEE700BFFEE700BFFEE700BF04
:100A9000FEE77047704770474E4800687047642013
:100AA000704700B50146FFF7F7FF024600BFFFF7AA
:100AB000F3FF801A8842FAD900BD10B54548006896
:100AC00000F10100434908604FF00001084603F0BF
:100AD00089F80021012003F085F800F099F810BD95
:100AE000032800D370473C4B43F820103B4B43F89E
:100AF000202000BFF6E710B53748006830B137480E
:100B00000168354802680020904701E000BFFEE719
:100B100010BD10B53048406830B1304841682E48AB
:100B200042680120904701E000BFFEE710BD10B50C
:100B30002948806830B129488168274882680220A6
:100B4000904701E000BFFEE710BD10B5032001F0A3
:100B50004FF901F00DF910BD10B5022001F035F983
:100B600088B14FF4003000F022FC012000F077FE45
:100B700010B1012000F080FE01F0FAF8022001F02F
:100B800037F901F0F5F810BD10B50121880702F022
:100B900019F9F0B10121880702F028F910A006F038
:100BA000A1F903F0F4F803F081FD012001F003F94D
:100BB00000BF012001F0F2F80028FAD001F098F807
:100BC00000F11E04204601F0B8F801F0D1F800F061
:100BD00031FE10BD14000020300200203C02002035
:100BE000676F696E6720696E2074696D6572322067
:100BF0007374616E646279206D6F64650A00000031
:100C0000FD49086000BFFC4909680029FBD1704715
:100C1000F948006828B1F8480068A0F10100F649D9
:100C20000860704710B54FF00001F44A12684FF4A5
:100C30007A74B2FBF4F30CE04FF00602B3FBF2F26D
:100C4000A2F1010100BF0A00A1F10101FBD1A0F155
:100C500001000028F0D110BD30B5E84800684FF021
:100C60006402B0FBF2F1B1F1807F02D34FF00100DA
:100C700028E021F07F40A0F101004FF0E022506118
:100C80004FF0FF304FF00F0200280ADA4FEA0273EC
:100C90004FEA1365DA4B00F00F04A4F104041D556C
:100CA00005E04FEA02734FEA1364D64B1C5400BFB1
:100CB0004FF000004FF0E02290614FF0070010610C
:100CC0004FF0000008B100BFFEE730BD10B54FF493
:100CD000803000F003FE00F046FE0446012C03D1F4
:100CE0004FF4A06000F095FE10BD10B54FF48030B9
:100CF00000F0F4FD00F037FEC349087008460078A4
:100D000001280FD100F067FE00BF392000F009FE76
:100D10000028FAD0022000F061FE00BF00F069FE5A
:100D20000828FBD110BD10B500F04EFA012000F0EC
:100D3000BFFE00BF612000F0F4FD0028FAD04FF4A0
:100D4000007000F0B8FE012000F0BCFE01F017F8C2
:100D500047F6FF7000F0E3FF01F00AF801210220DE
:100D600000F0A4FF01F004F810BD1CB54FF40030F2
:100D700000F01DFB4FF4003000904FF000008DF8A4
:100D800004004FF008008DF805004FF001008DF8C9
:100D90000600684600F087FA1CBD3EB54FF000041F
:100DA000964800684FF47A71B0FBF1F0A0F10100B1
:100DB00084B24FF00101084600F011FF4FF080406F
:100DC00001F030F84FF6FE70ADF804004FF6FF70FA
:100DD000ADF800004FF00000ADF80600ADF80200DD
:100DE00069464FF0804001F0F1F80121880701F0D9
:100DF000E5FF01221146900701F0C1FC012188079F
:100E000001F0A1FC0021012000F0E9FE3EBD3EB54D
:100E10004FF00004794800684FF47A71B0FBF1F0AC
:100E2000A0F1010084B24FF001014FF0040000F086
:100E3000D6FE764800F0F6FF48F6CE20ADF8040066
:100E40004FF6FF70ADF800004FF00000ADF806005F
:100E5000ADF8020069466D4801F0B8F801216B4811
:100E600001F0ACFF01221146684801F088FC012125
:100E7000664801F068FC0021042000F0B0FE3EBD91
:100E800008B54FF4C06000F01FF94FF029008DF84D
:100E900000004FF001008DF801004FF000008DF8C8
:100EA00002004FF001008DF80300684600F012F9CF
:100EB00008BD08B54FF4E06000F006F94FF01C00E3
:100EC0008DF800004FF000008DF801004FF0030096
:100ED0008DF802004FF001008DF80300684600F025
:100EE000F9F808BD08B54FF4E06000F0EDF84FF0F8
:100EF0001E008DF800004FF000008DF801004FF04B
:100F000004008DF802004FF001008DF803006846E0
:100F100000F0E0F808BD10B50121084600F05FFEC2
:100F20000121880701F00FFC10BD10B500214FF022
:100F3000804001F008FC0021012000F050FE10BDAF
:100F400010B50121042000F04AFE01212F4801F0D4
:100F5000FAFB10BD10B500212C4801F0F4FB002174
:100F6000042000F03CFE10BD10B545F2555000F0D5
:100F700003FC062000F003FC40F21A6000F002FCC3
:100F800010BD10B5002002F079FA10BD10B54FF475
:100F900016501F4908604FF000008880C880088103
:100FA00088814FF00C0048814FF0020002F0B5FA42
:100FB00010BD70B504460D46E1B2164802F08AF83D
:100FC00000BF4021134802F0FBF80028F9D020466A
:100FD00070BD10B54FF416500D4908604FF0000079
:100FE0008880C880088188814FF00C0048814FF0CC
:100FF000000002F092FA10BD1C0000203400002016
:1010000018ED00E000E400E01800002000080040B7
:10101000480200200048004010B54FF4165008491F
:1010200008604FF000008880C880088188814FF0F8
:101030000C0048814FF0010002F06FFA10BD000073
:101040004802002008B50121142000F0B9FD4FF03E
:101050000200ADF800004FF010008DF803004FF0D3
:1010600003008DF802006946154800F00FFA4FF4AE
:101070002060ADF800004FF010008DF803004FF035
:1010800003008DF8020069460E4800F0FFF94FF4A6
:101090000040ADF800004FF004008DF803006946F1
:1010A000074800F0F3F94FF48060ADF800004FF00E
:1010B00028008DF803006946024800F0E7F908BDF2
:1010C0000008014000100140384940EA0101384A57
:1010D0001160704770B54FF000010B464FF00F02E2
:1010E000C4784CB3324C246804F4E064C4F5E06482
:1010F0004FEA1421C1F1040322FA01F2447804FA00
:1011000003F1847804EA020444EA01014FEA011180
:10111000284C0678A155047804F01F054FF001040F
:1011200004FA05F405784FEA65154FF0E02606EB62
:101130008505C5F800410CE0047804F01F054FF068
:10114000010404FA05F41C4D06784FEA661645F8CA
:10115000264070BD194A01EA020242EA0002184B19
:101160001A60704731B1174A126842EA0002154B03
:101170001A6005E0134A126822EA0002114B1A6055
:101180007047042808D14FF0E021096941F00401BB
:101190004FF0E022116107E04FF0E021096921F0F2
:1011A00004014FF0E0221161704700000000FA05D1
:1011B0000CED00E000E400E080E100E080FFFF1FB4
:1011C00008ED00E010ED00E010B5012000F034FD66
:1011D000002000F031FD10BD24490860704724490B
:1011E0000860704723490860704701464FF00000CF
:1011F000214A10884FF67F4200EA020040EA0100CF
:101200001D4A1080704701464FF000001A4A1088AE
:101210004FF6807200EA020040EA0100164A108090
:1012200070474FF00002154A0244116070470146B2
:101230004FF00002114A0A44108870470D481830D8
:101240000068C0B270470E48008840F001000C49A9
:101250000880704707481C300068C0B270470848D3
:10126000008840F0020006490880704704860D425D
:1012700000860D4288860D422C6C0040006C0040B8
:10128000346C00404FF000004A49086001F104014D
:10129000086001F10401086001F10401086046489A
:1012A0004649086070474FF0000142498279002AA0
:1012B00040D00A461268036822EA03020B461A600D
:1012C00001F104021268036822EA030201F1040337
:1012D0001A60027911440A68036842EA03020A604C
:1012E000374A1268036822EA0302354B1A6003F199
:1012F00004021268036822EA0302324B1A60427940
:10130000102A0ED12E4A1268036842EA03022C4BBF
:101310001A602C4A1268036842EA0302294B1A60D9
:101320000FE02449427911440A68036842EA030243
:101330000A6006E0027911440A68036822EA03029F
:101340000A6070474FF00001016001714FF00C011D
:1013500041714FF00001817170471B49096841EAF2
:101360000001194A1160704701464FF00000134A0E
:1013700012680A4202D04FF0010001E04FF0000075
:1013800070470E490860704701464FF00000024662
:10139000084B1B6803EA0102084B1B680B4203D091
:1013A00012B14FF0010001E04FF000007047034917
:1013B0000860704700040140FFFF0F001404014063
:1013C000080401400C0401401004014010B504461B
:1013D000DE48844208D10121042000F00FFC0021E6
:1013E000042000F00BFC46E0D948844208D10121DA
:1013F000082000F003FC0021082000F0FFFB3AE089
:10140000D448844208D10121102000F0F7FB0021CC
:10141000102000F0F3FB2EE0CF48844208D10121D8
:10142000202000F0EBFB0021202000F0E7FB22E071
:10143000CA48844208D10121402000F0DFFB00218E
:10144000402000F0DBFB16E0C548844208D10121B2
:10145000802000F0D3FB0021802000F0CFFB0AE0C9
:10146000C048844207D10121801500F0C7FB00214C
:10147000A01500F0C3FB10BD10B50121084600F017
:10148000BDFB0021012000F0B9FB10BD2DE9F041AA
:1014900002464FF000052E462846034604460746FE
:1014A00091F803C00CF00F0591F803C01CF0100F69
:1014B00003D091F802C04CEA0505B1F800C01CF059
:1014C000FF0F35D014684FF000002EE04FF0010CF4
:1014D0000CFA00F3B1F800C00CEA03069E4222D1D8
:1014E0004FEA80034FF00F0C0CFA03F724EA0704CD
:1014F00005FA03FC4CEA040491F803C0BCF1280F80
:1015000006D14FF0010C0CFA00FCC2F814C00AE03E
:1015100091F803C0BCF1480F05D14FF0010C0CFA53
:1015200000FCC2F810C000F101000828CED31460FE
:10153000B1F800C0BCF1FF0F38DD54684FF0000077
:1015400031E000F1080C4FF0010808FA0CF3B1F893
:1015500000C00CEA03069E4223D14FEA80034FF0FD
:101560000F0C0CFA03F724EA070405FA03FC4CEA13
:10157000040491F803C0BCF1280F05D100F1080C58
:1015800008FA0CF8C2F8148091F803C0BCF1480FB7
:1015900007D100F1080C4FF0010808FA0CF8C2F866
:1015A000108000F101000828CBD35460BDE8F08121
:1015B0004FF6FF7101804FF0020181704FF004017E
:1015C000C170704702464FF0000093680B4202D092
:1015D0004FF0010001E04FF00000704701468868BD
:1015E00080B2704702464FF00000D3680B4202D031
:1015F0004FF0010001E04FF0000070470146C8685D
:1016000080B2704701617047416170470AB1016162
:1016100000E041617047C16070474FF4803242EA98
:10162000010282618161826182698269704702463A
:101630004FF000004C4B18684FF6807300EA03002F
:1016400040EA021040EA0100474B186070474749E2
:10165000C8617047F0B50A464FF000031C461946B2
:101660000D4600F00046B6F1004F02D13E4EF16942
:1016700001E03D4E7168C0F3034583B200F44016AB
:10168000B6F5401F08D121F07061374E766826F01C
:101690007066354F7E6017E000F48016B6F5801F47
:1016A00008D14FF0030606FA05F421EA040141F0DF
:1016B000706109E04FEA50564FEA061603FA06F643
:1016C00021EA060141F070613AB14FEA50564FEA03
:1016D000061603FA06F646EA010100F00046B6F1E6
:1016E000004F02D1204EF16101E01F4E7160F0BD4C
:1016F00030B54FF000024FEA81734FEA13744FF098
:101700000F0303FA04F21A4B4FEAA10453F82430F2
:1017100023EA0203164C4FEAA10544F8253023467C
:101720004FEAA10453F824304FEA81744FEA14744D
:1017300000FA04F443EA04030D4C4FEAA10544F80F
:10174000253030BD0B49086070470000000801409B
:10175000000C01400010014000140140001801403D
:10176000001C014000200140000001400000204218
:1017700008000140DC0020420F49086070470E4914
:10178000486070470C49886070474AF6AA200A49A9
:10179000086070474CF6CC40074908607047014626
:1017A0004FF00000044AD2680A4202D04FF0010014
:1017B00001E04FF0000070470030004010B50121FB
:1017C000080700F02AFA00214FF0805000F025FAB7
:1017D00010BD2D49086270472B49086170470146CA
:1017E0004FF00000294A106820F0E00040EA0100B4
:1017F0001060704726490860704710B502464FF0E8
:101800000000224B186820F0030040EA0200186034
:10181000204B1B6843F004031E4C2360012901D1B7
:1018200030BF00E020BF1B4B1B6823F00403194CA2
:10183000236010BD1548006840F00400134908609B
:101840000846006840F0020008601248006840F056
:1018500004001049086000BF00BF30BF7047014658
:101860004FF00000094A52680A4202D04FF00100CE
:1018700001E04FF0000070470449096841EA800127
:10188000024A11607047000000000E4200700040E4
:10189000A0000E4210ED00E0F748006840F00100A3
:1018A000F549086008464068F44900EA0100F24939
:1018B000486008460068F24900EA0100EE49086005
:1018C0000846006820F4802008600846406820F43C
:1018D000FE0048604FF41F0088607047E6490968C1
:1018E00021F48031E44A11601146096821F4802115
:1018F0001160B0F5803F03D0B0F5802F0ED106E027
:10190000DD49096841F48031DB4A116007E0DA49BA
:10191000096841F4A021D84A116000E000BF00BF6F
:10192000704710B501464FF00002134610464FEACB
:101930006112012A02D1D04C236806E0022A02D1AA
:10194000CD4C236A01E0CC4C636A01F01F024FF0DA
:10195000010404FA02F41C4202D04FF0010001E03D
:101960004FF0000010BD70B54FF00004254626462C
:1019700000BF3120FFF7D5FF064604F10104B4F59E
:10198000A06F01D0002EF4D03120FFF7CAFF10B1B4
:101990004FF0010501E04FF00005284670BD0146FB
:1019A0004FF00000B44A106820F0F80040EAC1008F
:1019B00010607047B3490860704702464FF000005E
:1019C000AD4B586820F47C1042EA010343EA000062
:1019D000A94B58607047AB490866704701464FF005
:1019E0000000A54A506820F0030040EA0100506062
:1019F0007047A148406800F00C00704701464FF066
:101A000000009D4A506820F0F00040EA010050605C
:101A1000704701464FF00000974A506820F4E0609C
:101A200040EA01005060704701464FF00000924AC2
:101A3000506820F4605040EAC1005060704731B1F6
:101A40008D4A527A42EA00028B4B5A7208E08A4A67
:101A5000527A6FEA0003DBB202EA0302864B5A7243
:101A6000704789490860704701464FF00000824A7C
:101A7000506820F4404040EA0100506070474FF049
:101A80000001824A11707C4A82F82010012802D09D
:101A900004280AD104E04FF001017C4A117005E0EE
:101AA0004FF00501794A117000E000BF00BF704798
:101AB0007749086070477049096A41EA00016E4A37
:101AC0001162704773490860704730B54FF00001EC
:101AD0000A460C460B46684D6D6805F00C0121B1B5
:101AE000042905D0082927D105E06B4D056026E0C3
:101AF000694D056023E0604D6D6805F470125E4D20
:101B00006D6805F480344FF0020505EB924224B96C
:101B1000624D02FB05F505600DE0574D6D6815F44B
:101B2000003F04D05D4D02FB05F5056003E05A4D12
:101B300002FB05F5056002E0574D056000BF00BFE0
:101B40004D4D6D6805F0F0014FEA1111544D6B5C7D
:101B5000056825FA03F54560474D6D6805F4E061B9
:101B60004FEA11214E4D6B5C456825FA03F58560FF
:101B7000414D6D6805F460514FEAD121484D6B5CD1
:101B8000456825FA03F5C5603B4D6D6805F4404195
:101B90004FEA9131434D6B5CC568B5FBF3F50561C8
:101BA00030BD31B1344A526942EA0002324B5A61C7
:101BB00005E0314A526922EA00022F4B5A61704710
:101BC00031B12D4A926942EA00022B4B9A6105E03D
:101BD000294A926922EA0002274B9A61704731B183
:101BE000254AD26942EA0002234BDA6105E0224A23
:101BF000D26922EA0002204BDA61704731B11E4AF5
:101C0000D26842EA00021C4BDA6005E01A4AD26848
:101C100022EA0002184BDA60704731B1164A1269A5
:101C200042EA0002144B1A6105E0134A126922EAE3
:101C30000002114B1A6170471B4908607047114937
:101C4000C86470470C49C87170470B48406A40F03F
:101C5000807009494862704701464FF00000064A0B
:101C600092680A4202D04FF0010001E04FF00000FC
:101C70007047014988727047001002400000FFF869
:101C8000FFFFF6FE00004242D80042422010024010
:101C9000800442423C04424200127A0000093D00A6
:101CA00020000020300000204004424231B1554A5B
:101CB000128842EA0002534B1A8008E0514A128807
:101CC0006FEA00039BB202EA03024E4B1A80704790
:101CD0004D48008840F010004B49088070474A4842
:101CE00000884FF6EF7100EA01004749088070470D
:101CF0004FF0000145480188A0F10400008841EA46
:101D00000040704700B50246FFF7E2FF4FEA12407D
:101D10003F4908803D490A80FFF7E1FF00BD00B55B
:101D20000246FFF7D5FFC2F303403A49088001F1AC
:101D300004010A80FFF7D3FF00BD00B50246FFF79C
:101D4000C7FF4FEA12403449088001F104010A80BC
:101D5000FFF7C5FF00BD4FF00000304909884FEA8A
:101D600001714FEA11302E49098841EA000070479D
:101D700000BF2548008810F0200FFAD07047224895
:101D800000884FF6F77100EA01001F49088000BF84
:101D90001D48008810F0080FFAD0704701464FF038
:101DA0000000194A12880A4202D04FF0010001E0F7
:101DB0004FF000007047144909886FEA000292B2A0
:101DC00001EA0201104A1180704701464FF00000FD
:101DD0000D4A128802EA0102D0B20A4A12880A4267
:101DE00003D010B14FF0010001E04FF00000704748
:101DF000054909886FEA000292B201EA0201024A2B
:101E00001180704700280040042800401C28004032
:101E100018280040082800402028004010280040D2
:101E20001428004010B50446FE48844208D1012120
:101E3000C014FFF7E3FE0021E014FFF7DFFEC4E06B
:101E4000B4F1804F08D101210846FFF7E6FE0021DA
:101E50000120FFF7E2FEB8E0F348844208D10121F7
:101E60000220FFF7DAFE00210220FFF7D6FEACE0E9
:101E7000EE48844208D101210420FFF7CEFE002164
:101E80000420FFF7CAFEA0E0E948844208D10121FE
:101E90000820FFF7C2FE00210820FFF7BEFE94E0F5
:101EA000E448844208D101211020FFF7B6FE00214A
:101EB0001020FFF7B2FE88E0DF48844208D10121FC
:101EC0002020FFF7AAFE00212020FFF7A6FE7CE0DD
:101ED000DA48844208D101214014FFF78FFE002127
:101EE0006014FFF78BFE70E0D548844209D10121D0
:101EF000C804FFF783FE00214FF40020FFF77EFEA9
:101F000063E0D048844209D101210805FFF776FE3D
:101F100000214FF48010FFF771FE56E0CA4884425A
:101F200009D101214805FFF769FE00214FF4001097
:101F3000FFF764FE49E0C548844208D101214020F2
:101F4000FFF76BFE00214020FFF767FE3DE0C04831
:101F5000844208D101218020FFF75FFE002180200C
:101F6000FFF75BFE31E0BB48844208D101218015B8
:101F7000FFF753FE0021A015FFF74FFE25E0B648FE
:101F8000844209D101210804FFF738FE00214FF4F3
:101F90008030FFF733FE18E0B048844209D10121B8
:101FA0004804FFF72BFE00214FF40030FFF726FE18
:101FB0000BE0AB48844208D101218804FFF71EFEE4
:101FC00000214FF48020FFF719FE10BD4FF00002F2
:101FD0000288944B98420ED0984B98420BD0B0F1A7
:101FE000804F08D0904B984205D0904B984202D039
:101FF0008F4B984206D14FF68F7302EA03024B884B
:1020000043EA02028B4B984209D08B4B984206D090
:102010004FF6FF4302EA0302CB8843EA0202028042
:102020008B8883850B8803857E4B98420BD0834B2E
:10203000984208D0884B984205D0884B984202D0ED
:10204000874B984201D10B7A03864FF001038382BC
:10205000704770B54FF0000422461346058C4FF6CA
:10206000FE7605EA06050584028C8388048B4FF60C
:102070008F7504EA05044FF6FC7504EA05040D8823
:1020800045EA04044FF6FD7502EA05020D8945EAAA
:1020900002024D8845EA0202624DA8420BD0674D0C
:1020A000A84208D06C4DA84205D06C4DA84202D081
:1020B0006B4DA8421BD14FF6F77502EA05024D8918
:1020C00045EA02024FF6FB7502EA05028D8845EAF1
:1020D00002024FF6FF6503EA05034FF6FF5503EAD8
:1020E00005038D8945EA0303CD8945EA030383800F
:1020F0000483CD888586028470BD70B54FF00004DE
:1021000022461346058C4FF6EF7605EA0605058450
:10211000028C8388048B48F6FF7504EA05044FF6A9
:10212000FF4504EA05040D884FEA056544EA1544B5
:102130004FF6DF7502EA05020D894FEA055542EABE
:1021400015424D884FEA055542EA1542354DA842E1
:1021500002D03A4DA84223D14FF67F7502EA05021C
:102160004D894FEA055542EA15424FF6BF7502EA1E
:1021700005028D884FEA055542EA15424FF6FF35B4
:1021800003EA05034FF2FF7503EA05038D894FEA61
:10219000854543EA1543CD894FEA854543EA154312
:1021A00083800483CD880587028470BD70B54FF0AD
:1021B000000422461346058C4FF6FF6605EA060525
:1021C0000584028C8388848B4FF68F7504EA05049E
:1021D0004FF6FC7504EA05040D8845EA04044FF641
:1021E000FF5502EA05020D894FEA056542EA1542EC
:1021F0004D884FEA056542EA15420A4DA84202D0D1
:102200000E4DA84244D14FF2FF7502EA05024D89F6
:102210004FEA056542EA15424FF6FF3502EA05022C
:102220008D881FE0002C01400004004000080040A1
:10223000000C004000100040001400400034014039
:10224000004C014000500140005401400018004083
:10225000001C0040002000400040014000440140BC
:10226000004801404FEA056542EA15424EF6FF7507
:1022700003EA05034DF6FF7503EA05038D894FEA6E
:10228000055543EA1543CD894FEA055543EA154301
:1022900083808483CD888587028470BD70B54FF0BC
:1022A000000213461446058C4EF6FF7605EA060535
:1022B0000584038C8488828B48F6FF7502EA050248
:1022C0004FF6FF4502EA05020D884FEA056542EA2E
:1022D00015424DF6FF7503EA05030D894FEA0575B2
:1022E00043EA15434D884FEA057543EA1543FB4D14
:1022F000A84202D0FA4DA84208D14BF6FF7504EA75
:1023000005048D894FEA855544EA1544848082830B
:10231000CD88A0F84050038470BD828B4FF2FF330C
:1023200002EA03028283828B4FEA016342EA13428C
:1023300082837047F0B50C4615464FF000021146F7
:102340000E46078C4EF6FF7C07EA0C070784828B4B
:10235000018C4FEA04774FEA174640F6FF4702EA3E
:1023600007024FEA056742EA17424FEA037742EA5B
:102370001742DA4FB8420ED0D94FB8420BD0B0F165
:10238000804F08D0D74FB84205D0D74FB84202D0BF
:10239000D64FB84208D14DF6FF7701EA070146F45F
:1023A000805747EA010107E047F6FF5701EA0701B6
:1023B00044F4805747EA010182830184F0BD828B97
:1023C0004FF6F37302EA03028283828B42EA010230
:1023D00082837047F0B50C4615464FF00002114657
:1023E0000E46078C4FF6FF6C07EA0C070784828BBA
:1023F000018C4FEA04674FEA17464FF60C7702EA62
:1024000007024FEA035745EA174747EA0202B34F6C
:10241000B8420ED0B24FB8420BD0B0F1804F08D0C6
:10242000B04FB84205D0B04FB84202D0AF4FB8421B
:1024300008D14FF6FF5701EA070146F4807747EAD3
:10244000010107E04FF2FF5701EA070144F48077EA
:1024500047EA010182830184F0BD028B4FF2FF3312
:1024600002EA03020283028B4FEA016342EA13424B
:1024700002837047F0B50C4615464FF00002114636
:102480000E46078C4FF6EF7C07EA0C070784028B99
:10249000018C4FEA04574FEA174640F6FF4702EA1D
:1024A00007024FEA037742EA17424FEA056742EA1A
:1024B00017428A4FB8420ED0894FB8420BD0B0F1C4
:1024C000804F08D0874FB84205D0874FB84202D01E
:1024D000864FB84208D14FF6DF7701EA070146F090
:1024E000100747EA010107E04FF65F7701EA0701AD
:1024F00044F0100747EA010102830184F0BD028B1A
:102500004FF6F37302EA03020283028B42EA0102EE
:1025100002837047F0B50C4615464FF00002114695
:10252000068C4FF6FE7706EA07060684028B018CBE
:102530004FF60C7602EA06024FEA035645EA1646C3
:1025400046EA0202654EB0420ED0654EB0420BD054
:10255000B0F1804F08D0634EB04205D0624EB04219
:1025600002D0624EB04208D14FF6FD7601EA060174
:1025700044F0010646EA010107E04FF6F57601EA6C
:10258000060144F0010646EA010102830184F0BD20
:1025900070B505460C46514885420ED050488542DC
:1025A0000BD0B5F1804F08D04E48854205D04E483B
:1025B000854202D04D48854200D100E000BF20880E
:1025C00050B92389A28861882846FFF7A3FFE188D4
:1025D0002846FFF794FF25E0208804280AD12389A4
:1025E000A28861882846FFF745FFE1882846FFF763
:1025F00034FF17E0208808280AD12389A28861883F
:102600002846FFF7E7FEE1882846FFF7D8FE09E0F5
:102610002389A28861882846FFF78CFEE188284636
:10262000FFF77BFE70BD2DE9F04105460C464FF0EB
:1026300000064FF00107608810B94FF0020601E074
:102640004FF00006A088012802D14FF0020701E0F8
:102650004FF001072088A0B92389A2886188284605
:10266000FFF758FFE1882846FFF749FF23893A46DC
:1026700031462846FFF7FEFEE1882846FFF7EDFECB
:1026800013E02389A28861882846FFF7F3FEE188DA
:102690002846FFF7E2FE23893A4631462846FFF7EF
:1026A00039FFE1882846FFF72AFFBDE8F0810A8854
:1026B0004B8842EA03028B8842EA0302CB8842EA53
:1026C00003020B8942EA03024B8942EA03028B8927
:1026D00042EA0302A0F8442070470000002C0140A9
:1026E000003401400004004000080040000C00409D
:1026F0004FF6FF7181804FF000010180C180418061
:10270000017270474FF00001018041808180C180DB
:10271000018141818181C18170474FF000010180B9
:1027200041804FF0010181804FF00001C1800181A3
:1027300070474FF00001018041808180C18001819C
:1027400041818181704721B1028842F001020280FB
:1027500005E002884FF6FE7302EA0302028070472A
:1027600031B1B0F8442042F40042A0F8442005E022
:10277000B0F84420C2F30E02A0F84420704710B510
:1027800022B1838943EA0103838106E083896FEAEA
:102790000104A4B203EA0403838110BD818270475F
:1027A00041EA0203A0F84830704710B522B183898E
:1027B00043EA0103838106E083896FEA0104A4B23E
:1027C00003EA0403838110BD01894FF6F87201EA20
:1027D0000201018170470A464FF0000101894FF65E
:1027E0008F7301EA030141EA02010181704730B5AC
:1027F00004460D4629462046FFF7EDFF208940F0AC
:102800000700208130BD2DE9F04104460D461646F3
:102810001F46602D06D13B46012231462046FFF778
:1028200029FE05E03B46012231462046FFF772FEB5
:1028300029462046FFF7CFFF208940F0070020817E
:10284000BDE8F08130B50C464FF000010189C9B2F6
:102850004FEA036542EA154545EA040545EA0101E8
:10286000018130BD2DE9F04105460E4617469846D8
:102870004FF0000443463A4631462846FFF7E2FF50
:102880002C894FF6F87004EA000444F007044FF670
:102890008F7004EA000444F070042C81BDE8F081DC
:1028A000F0B504460D4616461F463B4632462946BD
:1028B0002046FFF7C7FF208940F480402081F0BD0B
:1028C0000185828270470A464FF0000101884FF669
:1028D0008F7301EA030141EA020101807047F0B5FC
:1028E0000C4615461E464FF000010A460B4601896C
:1028F000028B038C4FF6F87701EA070141EA0401E5
:102900004FF6FC4702EA070240F2011742EA0702CB
:102910004FF6DD7703EA07034FEA065745EA174704
:1029200047EA0303018102830384F0BD0A464FF0A6
:102930000001018B4FF68F7301EA030141EA0201A6
:10294000018370470A464FF00001018B48F6FF7380
:1029500001EA03014FEA026341EA13410183704730
:102960000A464FF00001818B4FF68F7301EA030195
:1029700041EA0201818370470A464FF00001818BD2
:1029800048F6FF7301EA03014FEA026341EA13418B
:102990008183704721B1028842F08002028005E005
:1029A00002884FF67F7302EA03020280704721B16A
:1029B000828842F00402828005E082884FF6FB7331
:1029C00002EA03028280704721B1828842F0080245
:1029D000828005E082884FF6F77302EA0302828064
:1029E000704721B1828842F00102828005E082882E
:1029F0004FF6FE7302EA0302828070470A464FF0E8
:102A00000001018B4FF6F77301EA030141EA02016D
:102A1000018370470A464FF00001018B4FF2FF73AC
:102A200001EA03014FEA026341EA1341018370475F
:102A30000A464FF00001818B4FF6F77301EA03015C
:102A400041EA0201818370470A464FF00001818B01
:102A50004FF2FF7301EA03014FEA026341EA1341B7
:102A6000818370470A464FF00001018B4FF6FB73DC
:102A700001EA030141EA0201018370470A464FF06F
:102A80000001018B4FF6FF3301EA03014FEA0263B5
:102A900041EA1341018370470A464FF00001818BE0
:102AA0004FF6FB7301EA030141EA0201818370479B
:102AB0000A464FF00001818B4FF6FF3301EA030114
:102AC0004FEA026341EA1341818370470A464FF09F
:102AD0000001018B4FF67F7301EA030141EA020115
:102AE000018370470A464FF00001018BC1F30E01CC
:102AF0004FEA026341EA1341018370470A464FF0EF
:102B00000001818B4FF67F7301EA030141EA020164
:102B1000818370470A464FF00001818BC1F30E019B
:102B20004FEA026341EA1341818370470A464FF03E
:102B30000001018C4FF6FD7301EA030141EA020135
:102B4000018470470A464FF00001018C4FF6F7737D
:102B500001EA030141EA0201018470470A464FF08D
:102B60000001018C4FF6DF7301EA03014FEA0253C3
:102B700041EA1341018470470A464FF00001018C7D
:102B80004FF67F7301EA03014FEA025341EA134112
:102B9000018470470A464FF00001018C4FF6FF5345
:102BA00001EA03014FEA026341EA134101847047DD
:102BB0000A464FF00001018C4FF2FF7301EA030156
:102BC0004FEA026341EA1341018470470A464FF01D
:102BD0000001018C4DF6FF7301EA03014FEA027315
:102BE00041EA13410184704730B54FF000034FF0C4
:102BF000010404FA01F4A3B2048C6FEA0305ADB238
:102C000004EA05040484048C02FA01F5ADB244EA36
:102C10000504048430BD30B54FF000034FF00404C8
:102C200004FA01F4A3B2048C6FEA0305ADB204EA1E
:102C300005040484048C02FA01F5ADB244EA0504EB
:102C4000048430BD70B503464FF0000004461846BA
:102C500000F118004FF0010505FA01F5ACB21D8C2A
:102C60006FEA0406B6B205EA06051D8409B1082913
:102C70000AD100EB6100056825F070050560056864
:102C800045EA020505600EE0A1F10405ADB200EBD6
:102C90006500056825F4E045056005684FEA0266B1
:102CA00045EA1645056070BD21B1028842F0020276
:102CB000028005E002884FF6FD7302EA03020280FB
:102CC000704721B1028842F00402028005E00288C8
:102CD0004FF6FB7302EA03020280704721B182883B
:102CE00042F08002828005E082884FF67F7302EA1C
:102CF00003028280704702884FF6F77302EA0302EC
:102D00000280028842EA01020280704782884FF600
:102D10008F7302EA03028280828842EA0102828083
:102D2000704702894FF6F87302EA030202810289B2
:102D300042EA01020281704702894FF67F7302EA7C
:102D400003020281028942EA010202817047818402
:102D500070478185704781867047018770478187FA
:102D60007047A0F84010704702884FF6FF4302EA10
:102D700003020280028842EA010202807047014693
:102D8000888E70470146088F70470146888F7047CC
:102D90000146B1F8400070470146888C70470146F3
:102DA000088D704702464FF00000138A0B4202D094
:102DB0004FF0010001E04FF0000070476FEA0102A0
:102DC0000282704730B502464FF0000003460446C9
:102DD000158A05EA0103958905EA01041BB114B1BE
:102DE0004FF0010001E04FF0000030BD6FEA01023A
:102DF0000282704710B50446F848844209D1012187
:102E00008803FEF7FBFE00214FF48040FEF7F6FE3C
:102E100032E0F348844209D101214804FEF7FDFE67
:102E200000214FF40030FEF7F8FE25E0ED48844223
:102E300009D101218804FEF7F0FE00214FF4802023
:102E4000FEF7EBFE18E0E848844209D10121C804EE
:102E5000FEF7E3FE00214FF40020FEF7DEFE0BE05C
:102E6000E248844208D101210805FEF7D6FE002180
:102E70004FF48010FEF7D1FE10BD2DE9F04786B06B
:102E800005460E464FF00004A24600BFA146274665
:102E9000B08900B100BF2F462C8A4CF6FF7004EABF
:102EA0000004F08840EA04042C82AC894EF6F3104A
:102EB00004EA0004B088318940EA0100718940EADF
:102EC000010040EA0404AC81AC8A4FF6FF4004EAFA
:102ED0000004B08940EA0404AC8201A8FEF7F5FDC5
:102EE000BE48874202D1DDF810A001E0DDF80CA059
:102EF000A88910F4004F09D00AEBCA0000EB0A10B1
:102F000031684FEA4101B0FBF1F808E00AEBCA0072
:102F100000EB0A1031684FEA8101B0FBF1F84FF085
:102F20006400B8FBF0F04FEA00144FEA14104FF0C1
:102F3000640101FB1089A88910F4004F0AD04FF0FA
:102F4000320000EBC900B0FBF1F000F0070040EAEE
:102F500004040BE04FF0320000EB09104FF0640165
:102F6000B0FBF1F000F00F0040EA04042C8106B041
:102F7000BDE8F0874FF4165101604FF000018180E9
:102F8000C18001814FF00C0141814FF0000181812E
:102F9000704710B502464FF00000108A4FF2FF0351
:102FA00000EA03000B884C8843EA04038C8843EA58
:102FB0000403CC8843EA040343EA0000108210BDF6
:102FC0004FF00001018041808180C180704721B1B4
:102FD000828942F40052828105E082894DF6FF73B6
:102FE00002EA030282817047F0B503464FF0000405
:102FF000264625462046A1F510676A3F00D100BF4E
:103000001846C1F3421401F01F064FF0010707FAFA
:1030100006F5012C02D100F10C0006E0022C02D1D1
:1030200000F1100001E000F1140022B1076847EA46
:103030000507076003E0076827EA05070760F0BD9A
:1030400010B522B1838A43EA0103838206E0838AB2
:103050006FEA0104A4B203EA0403838210BD028A6A
:103060004FF6F07302EA03020282028A42EA010288
:103070000282704782894FF2FF7302EA0302828163
:10308000828942EA01028281704721B1828942F03D
:103090000202828105E082894FF6FD7302EA030293
:1030A00082817047028A4FF6DF7302EA03020282CE
:1030B000028A42EA01020282704721B1028A42F486
:1030C0008042028205E0028A4BF6FF7302EA0302A5
:1030D00002827047C1F308028280704701468888E7
:1030E000C0F308007047818941F001018181704778
:1030F000028BD2B20283028B42EA01220283704722
:10310000028B02F47F420283028B42EA01020283B5
:10311000704721B1828A42F02002828205E0828AD1
:103120004FF6DF7302EA03028282704721B1828A7E
:1031300042F01002828205E0828A4FF6EF7302EAC3
:1031400003028282704721B1828A42F008028282A1
:1031500005E0828A4FF6F77302EA03028282704723
:1031600021B1828942F40042828103E08289C2F364
:103170000E028281704721B1828A42F4006282820B
:1031800005E0828A4FF2FF7302EA030282827047EF
:10319000828A4FF6FB7302EA03028282828A42EA43
:1031A00001028282704721B1828A42F00202828249
:1031B00005E0828A4FF6FD7302EA030282827047BD
:1031C00002464FF00000B1F5007F00D100BF138828
:1031D0000B420DD04FF001000CE000000038014020
:1031E0000044004000480040004C004000500040B7
:1031F0004FF00000704701F40072B2F5007F00D17B
:1032000000BF6FEA01020280704770B502464FF0BE
:10321000000423461D461846A1F510666A3E00D1FB
:1032200000BFC1F3421501F01F034FF0010606FA7B
:1032300003F3012D03D1968906EA030308E0022D6A
:1032400003D1168A06EA030302E0968A06EA03031C
:103250004FEA21244FF0010606FA04F4168806EA24
:1032600004041BB114B14FF0010001E04FF0000065
:1032700070BD10B54FF000021346A1F510646A3C12
:1032800000D100BF4FEA21224FF0010404FA02F4FA
:10329000A3B26FEA0304048010BD00004FF00001E8
:1032A00008466D4A126842F480326B4B1A6000BFC8
:1032B000694A126802F4003001F1010110B9B1F558
:1032C000A06FF5D1644A126812F4003F02D04FF0AB
:1032D000010001E04FF00000012842D15F4A12686E
:1032E00042F010025D4B1A601A46126822F0030287
:1032F0001A601A46126842F002021A60564A526870
:10330000554B5A601A4652685A601A46526842F43F
:1033100080625A601A46526822F47C125A601A4639
:10332000526842F4E8125A601A46126842F08072FB
:103330001A6000BF484A126812F0007FFAD0464A6D
:10334000526822F00302444B5A601A46526842F017
:1033500002025A6000BF404A526802F00C02082A7A
:10336000F9D1704710B5FFF799FF10BD10B53A4875
:10337000006840F001003849086008464068384954
:1033800000EA01003449486008460068354900EA0F
:103390000100314908600846006820F48020086078
:1033A0000846406820F4FE0048604FF41F00886023
:1033B000FFF7D8FF4FF000602B49086010BD10B533
:1033C0004FF0000108460246234B5B6803F00C01F6
:1033D00021B1042906D008292CD107E0234B244C25
:1033E00023602BE0214B224C236027E01A4B5B68C3
:1033F00003F47010184B5B6803F480324FF0020343
:1034000003EB90402AB91B4B00FB03F3184C2360DD
:103410000FE0114B5B6813F4003F05D0154B00FB28
:1034200003F3134C236004E0104B00FB03F3104C38
:10343000236003E00D4B0E4C236000BF00BF064B22
:103440005B68C3F303130C4CE15C094B1B6823FA64
:1034500001F3074C236010BD001002400020024021
:103460000000FFF8FFFFF6FE08ED00E000127A0012
:103470003400002000093D003800002038B5044623
:10348000804951F8241041F001004FF00101FEF78E
:1034900097FB01217C48FEF7DDF87C4830F81400EA
:1034A000ADF800004FF014008DF803004FF002005B
:1034B0008DF80200764951F824006946FDF7E6FFD1
:1034C00038BD724931F81010714A52F8202051610C
:1034D00070476E4931F810106D4A52F82020116182
:1034E00070476B4951F82010C968684A32F81020BB
:1034F00081EA0201664A52F82020D160704770B517
:1035000005460E4640F225516248FFF77EFE18B18F
:103510006048FFF7E3FD044670BD7CB504460D46E8
:103520005D4951F824105D4A52F8242041EA020115
:1035300041F001004FF00101FEF742FB34B9584958
:1035400051F824000121FEF73BFB10E0012C06D1CD
:10355000534951F824000121FEF741FB07E0022CFA
:1035600005D14F4951F824000121FEF738FB4FF0F7
:1035700018008DF807004B4830F81400ADF804002F
:103580004FF003008DF80600474951F8240001A9C7
:10359000FDF77CFF4FF004008DF80700434830F83A
:1035A0001400ADF80400424951F8240001A9FDF7C8
:1035B0006DFF404951F824002946FFF75EFCE4B94D
:1035C0004FF025008DF800004FF000008DF801004D
:1035D0008DF802004FF001008DF803006846FDF7FA
:1035E00079FD002234491046FDF77AFA012240F2B3
:1035F00025513248FFF7F8FC3DE0012C1CD14FF07B
:1036000026008DF800004FF000008DF801008DF8C5
:1036100002004FF001008DF803006846FDF75AFDE7
:10362000002225490120FDF75BFA012240F22551D5
:103630002348FFF7D9FC1EE0022C1CD14FF02700D5
:103640008DF800004FF000008DF801008DF80200A9
:103650004FF001008DF803006846FDF73BFD0022A6
:10366000AFF265110220FDF73BFA012240F225512D
:103670000848FFF7B9FC0F4951F824000121FFF772
:10368000A6FC7CBD88720008000230008072000831
:103690004800002000480040A4720008B0720008F2
:1036A00098720008BC72000864000020C272000812
:1036B0007000002058000020A13A000800380140A6
:1036C000004400400648804706480047FEE7FEE702
:1036D000FEE7FEE7FEE7FEE7FEE7FEE7FEE7FEE7C2
:1036E0006D3300083101000801464FF0FF3011B979
:1036F0004FF0000002E0012900D108467047014662
:1037000009B9FE4805E0012901D1FD4801E04FF06B
:103710000000704770B505462846FFF7E5FF0446F0
:10372000FCB9F848C4EBC401F74A42F821004FF451
:103730008060C4EBC40102EB81014860FDF7AFF982
:1037400000EB80004FEA80004FF47A71B0FBF1F09B
:1037500000F10100C4EBC401EB4A02EB8101886176
:1037600020E0012C1ED1E948C4EBC401E64A42F82E
:1037700021004FF48060C4EBC40102EB810148607A
:10378000FDF78DF900EB80004FEA80004FF47A716D
:10379000B0FBF1F000F10100C4EBC401DA4A02EB26
:1037A00081018861C4EBC400D74951F82000C4EB03
:1037B000C401D54A02EB81018860C4EBC400114604
:1037C00051F82000C4EBC40102EB8101C8604FF046
:1037D0000000C4EBC40102EB81014861C4EBC400EA
:1037E000114601EB80008069012806D84FF00200E5
:1037F000C4EBC40102EB8101886170BD2DE9F04189
:1038000007460D4616464FF000040DE0295D384688
:10381000FFF760FC00BF40213846FFF7D1FC0028CD
:10382000F9D004F1010084B2B442EFDB2046BDE8D8
:10383000F0812DE9F04107460E4614463846FFF761
:103840005EFF8046256812E02068401B315C4046E0
:10385000FFF740FC00BF80214046FFF7B1FC002885
:10386000F9D080214046FFF7C6FCA5F10105002DE7
:10387000EAD1BDE8F0812DE9F84F83468946174625
:103880004FF0010000904FF00005D7F800A0584617
:10389000FFF72AFF0446C4EBC4009B4901EB8000FC
:1038A0000569002D7DD0C4EBC40001EB80004069A8
:1038B00030B14FF0020000904FF000003860ECE0B3
:1038C0004FF003000090C4EBC4008F4901EB80006F
:1038D0000569554500D95546C4EBC4008A4901EB3A
:1038E00080008068C4EBC401874A02EB8101C9688B
:1038F000884224D9C4EBC40002EB80002A46C16888
:10390000484602F033FDC4EBC4007F4901EB800060
:10391000C0682844C4EBC4017B4A02EB8101C86043
:10392000C4EBC400114601EB80000069A0EB050068
:10393000C4EBC40102EB810108613D60ADE0C4EB62
:10394000C400714951F82000C4EBC4016E4A02EB77
:10395000810149680844C4EBC40102EB8101C968D4
:10396000A0EB01082E46464543D8C4EBC40002EB49
:1039700080003246C168484602F0F8FCC4EBC4003F
:10398000614901EB8000C0683044C4EBC4015E4A69
:1039900002EB8101C860C4EBC400114651F820005D
:1039A00000E073E0C4EBC40102EB81014968084404
:1039B000C4EBC40102EB8101C968884209D8C4EB99
:1039C000C400114651F82000C4EBC40102EB810190
:1039D000C860C4EBC4004C4901EB80000069A0EB57
:1039E0000600C4EBC401484A02EB810108613D6056
:1039F0004BE0C4EBC400444A02EB80004246C1687D
:103A0000484602F0B3FCC4EBC4003F4951F8200023
:103A1000C4EBC4013C4A02EB8101C860C4EBC400A2
:103A2000114601EB80000069A0EB0800C4EBC40163
:103A300002EB81010861A6EB0806C4EBC402324B1D
:103A400003EB820209EB0800D168324602F08EFCDB
:103A5000C4EBC4002C4901EB8000C0683044C4EBC7
:103A6000C401294A02EB8101C860C4EBC4001146BD
:103A700001EB80000069A0EB0600C4EBC40102EB7F
:103A80008101086106EB0800386006E04FF0000A8B
:103A9000504638604FF0010000900098BDE8F88F64
:103AA0002DE9F041064688463046FFF71DFE0446E4
:103AB0003046FFF724FE07468AE03846FFF70EFB44
:103AC000C5B2C4EBC400104901EB8000C168C4EB6F
:103AD000C4000D4A02EB8000806800F101008142C1
:103AE00029D0C4EBC400114601EB8000C068C4EBD0
:103AF000C40152F8211088421FD109E0003801406A
:103B00000044004058020020580A002058060020B7
:103B1000C4EBC400114651F82000C4EBC40102EB11
:103B2000810149680844401EC4EBC40102EB8101D5
:103B30008968884201D1BDE8F081C4EBC4005949CD
:103B400001EB80008168C4EBC400564A02EB8000A0
:103B5000806800F10100C4EBC402524B03EB820207
:103B600090600D70C4EBC400194601EB8000006941
:103B700000F10100C4EBC4011A4602EB81010861A7
:103B8000C4EBC400114651F82000C4EBC40102EBA1
:103B9000810149680844C4EBC40102EB81018968D2
:103BA000884209D8C4EBC400114651F82000C4EB88
:103BB000C40102EB81018860C4EBC400394901EB08
:103BC00080008069C4EBC401364A02EB8101486180
:103BD00040F225513846FFF7F3FA01283FF46DAF64
:103BE00000BFA8E770B505460E462846FFF77CFDE6
:103BF0000446C4EBC4002B4901EB8000406960B16E
:103C0000C4EBC40001EB80004069A0F10100C4EBEB
:103C1000C401244A02EB8101486170BD00B585B042
:103C2000012144F20400FDF7CBFF4FF40070ADF822
:103C300010004FF018008DF813004FF003008DF8BE
:103C4000120004A91848FDF721FC4FF48060ADF87C
:103C500010004FF004008DF8130004A91248FDF77E
:103C600015FC4FF4E13000904FF00000ADF8040077
:103C7000ADF80600ADF80800ADF80C004FF00C00F0
:103C8000ADF80A0069460948FFF7F7F8012240F24B
:103C900025510648FFF7A8F901210448FFF797F9D5
:103CA00005B000BD580A002000080140003801405E
:103CB0002DE9F04F02460D464FF000018C46634659
:103CC00064460E4612B90020BDE8F08F01E002F113
:103CD000010210782028FAD010782D2804D14FF056
:103CE000010102F1010204E010782B2801D102F158
:103CF00001021078302802DB1078392801DD00201D
:103D0000E2E74FF001072CE04FF00A0C0020984644
:103D1000A8FB0C9B04FB0CBC03FB00CC107819EB3C
:103D200000084CF1000C4FF03009B8EB09036CF1BE
:103D3000000431B14FF0004C0020BCEB030CA0415B
:103D400007DB51B96FF0004C0020BCEB030CA04125
:103D500003DA4FF000073846B6E702F1010206F138
:103D600001061078302804DB1078392801DCAE42D7
:103D7000CADB19B14FF0FF30A3FB003C1846A3E7A4
:103D800010B54FF40061FD48FDF73EFC10BD10B5C5
:103D90004FF40061F948FDF735FC10BD2DE9F843FB
:103DA00006464FF4806000906A46F5494FF00000E7
:103DB000FFF761FD032802D00120BDE8F8830098D9
:103DC00000287DD0EFA0009903F08CF84FF0000898
:103DD00007E0EB4810F80810F2A003F083F808F1B0
:103DE000010800988045F4D3EDA003F07BF8EEA025
:103DF00003F078F8F2A1E24802F0EBFA0746002F50
:103E000074D04FF000044FF002024FF02C013846FE
:103E100000F060FB04468CB104F1010420784128D5
:103E200002D02078612803D14FF00100B07205E084
:103E30004FF00000B0724FF00300BEE74FF00004F7
:103E40004FF001024FF02C01384600F043FB0446CE
:103E50006CB104F101044FF0000505E014F8010B0A
:103E6000705505F10100C5B220782C28F6D14FF02D
:103E700000044FF003024FF02C01384600F02AFBFB
:103E800004467CB104F101044FF0000507E014F88A
:103E9000011B06F10B00415505F10100C5B2207868
:103EA0002C28F4D14FF000044FF004024FF02C0105
:103EB000384600F00FFB044644B104F1010400E071
:103EC00094E020782C2801D0207830754FF0000441
:103ED0004FF005024FF02C01384600F0FBFA044683
:103EE00084B104F101044FF0000508E078E014F813
:103EF000011B06F11500415505F10100C5B22078FE
:103F00002C28F4D14FF000044FF006024FF02C01A2
:103F1000384600F0DFFA044634B104F10104207899
:103F20002C2801D02078F0774FF000044FF00702E2
:103F30004FF02C01384600F0CDFA0446A4B104F14C
:103F400001044FF0000507E014F8011B06F1200002
:103F5000415505F10100C5B220782C28F4D14FF06D
:103F6000000106F1200041554FF000044FF0080217
:103F70004FF02C01384600F0ADFA0446A4B104F12C
:103F800001044FF0000507E014F8011B06F13000B2
:103F9000415505F10100C5B220782C28F4D14FF02D
:103FA000000106F1300041554FF000044FF00902C6
:103FB0004FF02C01384600F08DFA044694B104F11C
:103FC00001044FF0000507E014F8011B06F1400062
:103FD000415505F10100C5B220782C28F4D101E04B
:103FE0000220EAE66648009902F0D9F90020E4E6EA
:103FF0000FB42DE9F0438BB0DDF89080022113A8B7
:10400000FFF756FE009002210DF14A00FFF750FE27
:104010000190022112A8FFF74BFE0290022122A874
:10402000FFF746FE039002210DF18A00FFF740FEE4
:104030000490022123A8FFF73BFE00F164000590E5
:104040004FF000000890684602F040F9C8F8000000
:104050005DA002F047FF4FF0000906E018F80910D4
:104060005BA002F03FFF09F10109B9F1040FF5D39C
:1040700052A002F037FF9DF85C004E2839D1022192
:104080000DF15500FFF714FE044602210DF1530017
:10409000FFF70EFEC0EB001004EB800447F2305037
:1040A0004443012116A8FFF703FE40F2771148436D
:1040B00004EBC00401210DF15900FFF7F9FDC0EB3D
:1040C000001000EB800004EB800401210DF15A0088
:1040D000FFF7EEFDC0EB001004EB400401210DF1F1
:1040E0005B00FFF7E5FD00EB40002044C8F804004A
:1040F0003EE09DF85C0053283AD102210DF15500B5
:10410000FFF7D6FD044602210DF15300FFF7D0FD65
:10411000C0EB001004EB800447F23050444301210F
:1041200016A8FFF7C5FD40F27711484304EBC00421
:1041300001210DF15900FFF7BBFDC0EB001000EBB2
:10414000800004EB800401210DF15A00FFF7B0FD5F
:10415000C0EB001004EB400401210DF15B00FFF700
:10416000A7FD00EB40002044C0F10000C8F80400A7
:1041700019A002F0B7FE4FF000093BE0001001402B
:10418000900A0020475053496E666F416E616C790A
:104190007A65207265637620256420627974657380
:1041A0000D0A000025630000475053496E666F41B9
:1041B0006E616C797A6520646F6E650D0A0000008F
:1041C000244750524D4300005554433A000000002C
:1041D000307825782D0000004C4154493A00000009
:1041E00008F1040010F80910AFF21C0002F07AFE8A
:1041F00009F10109B9F1040FF2D3AFF2400002F066
:1042000071FE9DF86700452838D1022118A8FFF7F4
:104210004FFD044603210DF15D00FFF749FDC0EBA2
:10422000001004EB800447F23050444301210DF1AB
:104230006300FFF73DFD40F27711484304EBC004F3
:10424000012119A8FFF734FDC0EB001000EB80003E
:1042500004EB800401210DF16500FFF729FDC0EB9F
:10426000001004EB400401210DF16600FFF720FD72
:1042700000EB40002044C8F808003DE09DF86700CE
:10428000572839D1022118A8FFF712FD044603214F
:104290000DF15D00FFF70CFDC0EB001004EB800496
:1042A00047F23050444301210DF16300FFF700FD58
:1042B00040F27711484304EBC004012119A8FFF72D
:1042C000F7FCC0EB001000EB800004EB8004012140
:1042D0000DF16500FFF7ECFCC0EB001004EB4004AF
:1042E00001210DF16600FFF7E3FC00EB40002044E4
:1042F000C0F10000C8F8080053A002F0F3FD4FF031
:10430000000909E008F1080010F80910AFF24010A8
:1043100002F0E8FD09F10109B9F1040FF2D3AFF29F
:10432000641002F0DFFD1AA802F095FF0446484A27
:10433000484B02F098F8064602F005F988F80C00A0
:104340001EA802F088FF044602F0FDF8A8F80E004F
:104350009DF8520088F8100098F80C103EA002F06A
:10436000C1FD41A002F0BEFD4FF0000909E008F1D7
:104370000E0010F80910AFF2A81002F0B3FD09F119
:104380000109B9F1020FF2D3AFF2D01002F0AAFD89
:1043900098F8101036A002F0A5FD0BB0BDE8F003B0
:1043A0005DF814FB70B5364802F032F8054635A0CA
:1043B00002F098FD4FF0000407E03148015DAFF2D4
:1043C0001C2002F08FFD04F10104AC42F5D331480A
:1043D00002F01EF8054630A002F084FD4FF0000404
:1043E00007E02C48015DAFF2442002F07BFD04F1B0
:1043F0000104AC42F5D32C4802F00AF805462BA084
:1044000002F070FD4FF0000407E02748015DAFF2B5
:104410006C2002F067FD04F10104AC42F5D328489A
:1044200001F0F6FF054627A002F05CFD4FF0000406
:1044300007E02348015DAFF2942002F053FD04F140
:104440000104AC42F5D370BD4C4F4E47493A0000D1
:104450009A9999999999FD3F53504545443A20308E
:104460007825780A00000000434F555253453A0022
:104470005354415455533A20307825780A000000AF
:104480007C0000200A204750535F45696E666F200C
:104490003A2000009A0000200A204750535F4E69DE
:1044A0006E666F203A200000B80000200A20416CA0
:1044B0007469747564655F696E666F203A200000E8
:1044C000BD0000200A2053706565645F696E666FE9
:1044D000203A20002DE9F04106460F4614464FF0E1
:1044E0000005B046304601F093FFA04202D2002002
:1044F000BDE8F08108E03946404601F080FF0546FE
:1045000005B905E005F101082000A4F10104F2D18C
:1045100000BF2846ECE72DE9F04705460F469046D8
:10452000384601F075FF8246384601F071FFA8EB6E
:10453000000000F101064FF00009002E11DD4C468D
:1045400008E028195246394601F06AFF00B903E035
:1045500004F10104B442F4DB00BFB44201DA05EB1C
:1045600004094846BDE8F087F0B505460E464FF011
:1045700000042F469A4201D90020F0BD1AE04FF006
:10458000000105E0785CB04200D103E001F10101D7
:104590009942F7D300BF994206D207EB010401F11B
:1045A0000100A3EB000301E04FF0000404B905E0B3
:1045B00004F101071000A2F10102E0D100BF204682
:1045C000DBE770B503460C464FF000000546F4B13A
:1045D00094421CD901460FE05E5C302E05DB5E5C28
:1045E000392E02DC05F1010501E04FF0000595428E
:1045F00000D303E001F10101A142EDD300BF9542D8
:1046000005D303EB0106A6EB020606F1010070BD1F
:1046100030B502460B464FF000000446014622E04A
:10462000555C412D06DB555C462D03DC555CA5F140
:10463000370412E0555C612D06DB555C662D03DC0A
:10464000555CA5F1570408E0555C302D05DB555C41
:10465000392D02DC555CA5F130044FEA001040EA28
:10466000040001F101019942DAD330BD7047002006
:10467000704708B501211020FDF7A2FA4FF48060C1
:10468000ADF800004FF010008DF803004FF002006D
:104690008DF802006946F948FCF7F8FE08BD10B530
:1046A0004FF40071F548FCF7ADFF10BD10B54FF4A5
:1046B0000071F248FCF7A8FF10BD10B50221F048C8
:1046C000FCF7A2FF4FF49670FCF79AFA0221EC482F
:1046D000FCF798FF4FF49670FCF792FA10BD10B5F6
:1046E0004FF48061E74801F05AFE10BD2DE9F84F04
:1046F00005460F4690464FF00509E24E4FF0000A7E
:10470000CDF800800098A0B1DFA002F0EBFB4FF0E5
:10471000000405E0295DE1A002F0E4FB04F10104DE
:1047200000988442F6D3DEA002F0DCFBDDA002F0AC
:10473000D9FB6A4629460120FFF77BF8002F41D0BC
:1047400033E04FF4806000904FF00A00FCF758FA15
:104750006A4631460120FFF78EF882460098C0B1C4
:10476000BAF1030F15D1D4A0009902F0BBFB4FF0B2
:10477000000405E0315DC9A002F0B4FB04F10104BE
:1047800000988442F6D3C6A002F0ACFBD1A002F0A0
:10479000A9FB009848B1BAF1030F06D1394630465B
:1047A000009AFFF7B8FE00B105E0A9F10100C0B220
:1047B0005FEA0009C5D100BFB9F1000F02D10120A5
:1047C000BDE8F88F0020FBE72DE9FF4F81B00646DA
:1047D00088461F46DDF838904FF0050AA94C4FF087
:1047E000000B039800900098A0B1A7A002F07AFBFC
:1047F0004FF0000505E0715DA8A002F073FB05F124
:10480000010500988542F6D3A5A002F06BFBA5A098
:1048100002F068FB6A4631460120FFF70AF844E0DF
:104820004FF4806000904FF00A00FCF7E9F96A4607
:1048300021460120FFF71FF883460098B8B1BBF16D
:10484000030F14D1A9A002F04DFB4FF0000505E0C5
:10485000615D92A002F046FB05F1010500988542DA
:10486000F6D38FA002F03EFB8EA002F03BFB009837
:10487000A0B1BBF1030F11D107B13C60B9F1000F3A
:1048800002D00098C9F80000B8F1000F05D04146E9
:10489000204601F09EFD08B10DE00CE0BAF1000FDA
:1048A00003D1012005B0BDE8F08FAAF10100C0B22C
:1048B0005FEA000AB4D100BF0020F3E710B5092277
:1048C0008FA19148FFF712FF08B9032010BD0922FC
:1048D0008EA18D48FFF70AFF08B90420F6E70120F2
:1048E000F4E770B504468B4801F092FD0546FFF7EA
:1048F000F6FE2A4688498748FFF7F8FE98BB012252
:104900002C216048FFF7E6FD8449086008460068EE
:1049100008B9012070BD81480068A0F102007F49FC
:104920000860084600680078302804DB0846006804
:104930000078392806DD794800684078A0F1300019
:1049400020700EE0754800684078A0F1300073498F
:1049500009680978A1F1300101EB810100EB410008
:1049600020700020D6E7FFE70120D3E73EB50446DC
:104970004FF0000002900190694801F049FD0546A2
:10498000FFF7ADFE01A802AB2A46634900906448D8
:10499000FFF71AFFA0B90F22DDE90110FFF711FEA2
:1049A000604908600846006808B901203EBD2CB186
:1049B0000F225C480168204601F0D8FC0020F5E792
:1049C0000120F3E7F0B585B006464FF000000490F3
:1049D00003900546544801F01BFD0746FFF77FFE94
:1049E00003A804AB3A464C4900904F48FFF7ECFE51
:1049F000002842D10F22DDE90310FFF7E2FD4B4909
:104A000008600846006810B9012005B0F0BD4FF0FD
:104A1000000406E045480068005D02A9085504F15D
:104A20000104032CF6D34FF000008DF80B00044670
:104A300008E03E48006800F10300005D01A9085548
:104A400004F10104022CF4D34FF000008DF80600AD
:104A500002A801F0FBFC05464FF0FF00B5FBF0F0AB
:104A60003070FF2D64D94FF0FF00B5FBF0F100FB73
:104A70001150A0F10100707061E07EE00010014073
:104A8000000801401F0F002047534D5F53656E64BF
:104A900041542073656E640D0A0000002563000018
:104AA0000D0A000047534D5F53656E644154206406
:104AB0006F6E650D0A00000047534D5F53656E64CD
:104AC0004154207265637620256420627974657391
:104AD0000D0A000047534D5F53656E6441542072C8
:104AE00065637620646F6E650D0A000047534D5F65
:104AF00053656E64415420726563760D0A000000B0
:104B00004D4F42494C4500000F730008554E494334
:104B10004F4D0000EB720008CC720008F40000203A
:104B2000FD720008F800002084740008FC000020DA
:104B30004FF0FF00B5FBF0F100FB1150707001A8C1
:104B400001F084FC05464FF0FF00B5FBF0F0B070BB
:104B5000FF2D09D94FF0FF00B5FBF0F100FB11501C
:104B6000A0F10100F07006E04FF0FF00B5FBF0F19E
:104B700000FB1151F170002047E7012045E72DE9C6
:104B8000FF4105464FF00006304603900290044670
:104B9000F64801F03DFC0646FFF7A1FD02A803AB75
:104BA0003246F3A10090F148FFF70EFE002872D1C3
:104BB00001222221DDE90230FFF7D6FC04461CB9B0
:104BC000012004B0BDE8F081ECB160788DF80400FC
:104BD000A0788DF8050001A801F01AFC07463946B7
:104BE00001A8FFF715FDA870E0788DF80400207982
:104BF0008DF8050001A801F00BFC0746394601A815
:104C0000FFF706FDE87003222221DDE90230FFF7FD
:104C1000ABFC04460CB90120D3E7ECB160788DF809
:104C20000400A0788DF8050001A801F0F1FB07460B
:104C3000394601A8FFF7ECFC2871E0788DF80400F4
:104C400020798DF8050001A801F0E2FB07463946FE
:104C500001A8FFF7DDFC687102222C21DDE902309A
:104C6000FFF782FC04460CB90120AAE714B114F83E
:104C7000010C687001222C21DDE90230FFF774FC81
:104C800004460CB901209CE714B114F8010C2870FB
:104C9000002096E7FFE7012093E770B50446B64889
:104CA00001F0B6FB0646FFF71AFD3246B349B2489B
:104CB000FFF71CFD20BB01222C21B148FFF70AFCA5
:104CC000B04908600846006808B9012070BDAD48C9
:104CD000006810F8010C2070AA48006800F101007B
:104CE000A84908600846006801F0B0FB00EB4005E9
:104CF00005EBD570C0F34F0060804FF00000E5E792
:104D00000120E3E72DE9F8430546884617464FF0B2
:104D100000000090FFF7E3FC9B489C4908600846B0
:104D2000006810B90120BDE8F8833A4698499748D1
:104D3000006802F0E7F89548006801F069FB009010
:104D40008E499248009A0068FFF7D0FC012F44D1A9
:104D50004146904801F071FBFFF7C1FC8A488B493E
:104D600008600846006808B90120DCE72A468A493D
:104D70008648006802F0C6F88448006801F048FBE5
:104D8000009086A18148009A0068FFF7AFFC3220AE
:104D9000FBF736FF82A17F4801F00DFB7D4801F053
:104DA00037FB0090FFF79BFC6A467A490120FEF72B
:104DB00040FDC820FBF724FF4FF4806000906A4656
:104DC0006F494FF00100FEF734FD76A16C4801F009
:104DD00000FB00287ED00020A5E7002F7AD13E46B8
:104DE000344600BF04F101002A5C304606F101019F
:104DF000CEB26D490A542A5D304606F10101CEB2A9
:104E000069490A5404F10200C4B204F10100285CAB
:104E10000D2802D0601C285C78B94FF0460230465D
:104E200006F10101CEB260490A542A5D304606F10E
:104E30000101CEB25C490A5401E00B2CD2DB00BF69
:104E40005AA1544801F0F9FA5749524801F0B3FA0F
:104E50005AA1504801F0AFFA404601F0D9FA4FEAA2
:104E600050000090009800F00F034FEA101255A177
:104E7000564802F047F85549464801F09CFA414629
:104E8000444801F098FAFFF72AFC3F483F49086080
:104E90000846006808B9012045E73E4801F0B8FA25
:104EA0004FF00101C1EB5000009049493748009A8A
:104EB000006802F027F83548006801F0A9FA009070
:104EC00036A13248009A0068FFF710FC3220FBF749
:104ED00097FE00E021E032A12E4801F06CFA2D4847
:104EE00001F096FA0090FFF7FAFB6A462949012083
:104EF000FEF79FFCC820FBF783FE4FF48060009014
:104F00006A461F494FF00100FEF793FC25A11C489B
:104F100001F05FFA08B1002005E7012003E770B552
:104F20004FF000042B4801F073FA054602E014200C
:104F3000FBF766FE2A4628492648FFF7D7FB0028DC
:104F4000F5D104464FF001002449087008E0FFF74E
:104F5000B5FC2249087004F10104052C00D903E0D6
:104F60001E4800780128F2D000BF70BDDC74000834
:104F700043524547000000007A740008CC720008D4
:104F80001F0F0020040100201F1300200801002033
:104F90004C740008900E0020587400083E00000079
:104FA0001A0000004F4B0000100F0020303031314C
:104FB000303030443931363800000000303030387D
:104FC0004130000025582558000000000C01002049
:104FD0006674000805730008CF72000850010020B5
:104FE0003EB54FF00005284602900190FE4801F0C2
:104FF0000FFA05461AE000BF01A802AB2A46AFF23D
:1050000090010090F848FFF7DFFB0028F4D101225F
:105010002C21DDE90130FFF7A7FA04461CB16078C6
:10502000312800D103E01420FBF7EAFDE3E700BFDD
:105030003EBD10B54FF00004EC48ED4908604FF05C
:105040000202EC49EA48006801F05CFFE8480068A9
:1050500001F0DEF9044600BF2246E749E448006853
:10506000FFF744FB0028F7D110BD10B54FF0000446
:10507000E24801F0CDF9044600BF2246DE49DF4890
:10508000FFF734FB0028F8D110BD3EB54FF000000B
:10509000029001901CE000BF01A802AB0B22D8A136
:1050A0000090D948FFF790FB0028F5D101223A2162
:1050B000DDE90130FFF758FA04464CB100BF04F1B6
:1050C000010420782028FAD02078312800D100E08F
:1050D000E1E700BF3EBD10B54FF00004C348CB4927
:1050E0000860CBA2CC49C948006801F00BFFC74853
:1050F000006801F08DF9044600BF2246BE49C3484E
:105100000068FFF7F3FA0028F7D110BD3EB54FF065
:105110000000029004460190C04801F079F904466D
:1051200000BF01A802AB224600210090BB48FFF758
:105130004BFB0028F5D13EBD10B54FF00004B84838
:1051400001F066F9044600BF2246AB49B448FFF7B8
:10515000CDFA0028F8D110BD30B58BB004464FF021
:105160002302214602A801F001F94FF000059F48F3
:10517000AC4908600846006810B901200BB030BD8A
:1051800006A802AB421DA8490090A648006801F09D
:10519000B9FEA448006801F03BF905462A46A34938
:1051A000A0480068FFF7A2FA08B90020E6E701204E
:1051B000E4E700B589B09EA29EA10DF1150001F0B3
:1051C000A1FE9DA29BA1684601F09CFE9EA104A8A1
:1051D00001F098FE00BF6846FFF7BEFF0028FAD135
:1051E00009B000BD10B54FF00E0400BF2246AFF26B
:1051F0004C219748FFF77AFA0028F7D14FF00E04B8
:1052000000BF2246AFF264219248FFF76FFA0028F0
:10521000F7D110BD70B54FF000048F4801F0F8F8D9
:10522000C5B20BE01E20FBF7EBFC04F10100C4B299
:10523000022C03DDFFF741FA4FF000042A466E49C5
:105240008548FFF753FA0028ECD1844801F0E0F8D4
:10525000C5B22A4668498148FFF748FA70BD70B563
:1052600004464FF0000561487D4908600846006823
:1052700008B9012070BD22467A497948006801F0DA
:1052800041FE7748006801F0C3F805462A465A49AE
:1052900073480068FFF72AFA08B90020EAE70120FE
:1052A000E8E72DE9F04104460D464FF000070CB148
:1052B000FA2C02DD0120BDE8F0814C486A49086003
:1052C0000846006808B90120F5E7224667496648A4
:1052D000006801F017FE6448006801F099F807467D
:1052E000FFF7FDF93A4662A15F480068FFF7FEF953
:1052F000002852D1012222215F48FFF7EBF85F49D5
:105300000860022222215C48FFF7E4F85C4908604B
:105310005A48006810B10846006808B90120CAE779
:105320005748006855490968A0EB0100461E01D4A2
:10533000304600E07042024650480168491C284649
:1053400001F014F8032222214B48FFF7C3F84B4920
:105350000860042222214848FFF7BCF84849086049
:105360004648006810B10846006808B90120A2E765
:105370004348006841490968A0EB0100461E01D47A
:10538000304600E0704202463C480168491C05F185
:105390000C0000F0EBFF00208DE701208BE770B5DB
:1053A0000446FA2C00DC0CB9012070BD0F483549C9
:1053B00008600846006808B90120F6E7224632492D
:1053C0003048006801F09EFD2E48006801F020F88A
:1053D00005462A4608492B480068FFF787F908B9AF
:1053E0000020E2E752E00000DC7400081F130020F8
:1053F00010010020E6740008CC720008B7730008A2
:105400004347415454000000FE740008140100207A
:1054100022434D4E45542200F274000809750008DD
:105420009F7300083C010020C5730008D572000876
:1054300054435000257300003132312E34302E3267
:1054400030302E383400000036363636000000008A
:10545000B0740008BE740008C8720008E572000845
:1054600018010020197300081C0100202F73000888
:105470002B435042520000001F0F0020200100204B
:1054800024010020280100203B73000801208CE744
:1054900070B54FF03004F94800F0BAFF0546FFF749
:1054A0001EF92A46F649F548FFF720F998B9022275
:1054B0002C21F448FFF70EF8F3490860084600680D
:1054C00008B9012070BDF048006820B1EE480068BE
:1054D00044782046F6E70120F4E710B5EB4800F0E9
:1054E00097FF04462246E649E848FFF7FFF808B967
:1054F000002010BD0120FCE710B5E54800F088FF52
:1055000004462246DE49E248FFF7F0F808B90020D9
:1055100010BD0120FCE770B50446DE4800F078FFBE
:105520000546FFF7DCF82A46D549DA48FFF7DEF8EA
:10553000002874D101222C21D248FEF7CBFFD64996
:1055400008600846006808B9012070BDD2480068AC
:10555000A0F10800D0490860084600684078A0F132
:10556000300009680978A1F1300101EB810100EBFD
:10557000410040B26071C84800680079A0F1300075
:10558000C5490968C978A1F1300101EB810100EB3F
:10559000410040B22071C0480068C079A0F13000DD
:1055A000BD4909688979A1F1300101EB810100EB66
:1055B000410040B2E070B8480068807AA0F1300045
:1055C000B5490968497AA1F1300101EB810100EB8D
:1055D000410040B2A070B0480068407BA0F13000AC
:1055E000AD490968097BA1F1300101EB810100EBB4
:1055F000410040B26070A8480068007CA0F1300013
:10560000A5490968C97BA1F1300101EB810100EBDB
:10561000410040B220704FF0000096E7FFE7012004
:1056200093E72DE9F34F93B04FF000001290FFF78E
:1056300056F89A489A4908600846006818B9012047
:1056400015B0BDE8F08F9DF953000A2190FBF1F2EF
:1056500001FB120490FBF1F59DF94C0090FBF1F277
:1056600001FB120690FBF1F79DF94D0090FBF1F262
:1056700001FB120890FBF1F99DF94E0090FBF1F24D
:1056800001FB120A90FBF1FB9DF94F0090FBF1F238
:1056900001FB120011909DF94F0090FBF1F010906A
:1056A0009DF9500090FBF1F201FB12000F909DF963
:1056B000500090FBF1F00E909DF9510090FBF1F23B
:1056C00001FB12000D909DF9510090FBF1F0CDE926
:1056D00004BACDE90698CDE90876CDE90A540C90D4
:1056E000DDE90E23DDE91010CDE90023CDE902103C
:1056F0006C496B48DDE90C23006801F003FC684845
:10570000006800F085FE12905D496548129A0068B5
:10571000FEF7ECFF08B9002092E7012090E770B592
:1057200005464FF00004FEF7DAFF5C485E4908606A
:105730000846006808B9012070BD58485A490860F9
:1057400002225A495848006801F0DCFB56480068BC
:1057500000F05EFE04462246494953480068FEF7C1
:10576000C5FF08B90020E7E70120E5E710B550487C
:1057700000F04EFE0446224641494D48FEF7B6FF72
:105780004C4800F045FE044622463D494948FEF794
:10579000ADFF494800F03CFE0446224638494648E1
:1057A000FEF7A4FF454800F033FE04462246344984
:1057B0004248FEF79BFF424800F02AFE044622467C
:1057C0002F493F48FEF792FF3E4800F021FE044675
:1057D00022462B493B48FEF789FF10BD2DE9F341D6
:1057E00082B00746DFF89C80374800F011FE019038
:1057F0003E213548019AFEF779FF80B94FF0040049
:10580000019003AA39464FF00100FEF712F84FF05D
:105810000100019001AAAFF67801FEF70AF84FF0F7
:1058200005067AE04FF4806000904FF01400FBF71B
:10583000E7F96A4613490120FEF71DF8044600986F
:10584000C8B1032C17D121A001F04CFB4FF000058B
:1058500007E00C48415DAFF6BC5001F043FB05F199
:10586000010500988542F4D3AFF6CC5001F03AFB25
:105870001CA001F037FB224631463FE0447300088C
:10588000CC7200081F0F00202C0100204D7300086F
:105890005273000814740008300100201F13002008
:1058A000340100201E740008380100208D740008A7
:1058B0005773000871730008807300088E73000826
:1058C0009F730008A9730008DF7300084750525304
:1058D0005F53656E644461746120726563760D0A7E
:1058E00000000000475052535F53656E644461747A
:1058F0006120646F6E650D0A00000000F9A0009B36
:1059000001F0F0FA009840B1032C06D1FCA140460A
:10591000009AFEF700FE00B103E0A6F101000600C8
:1059200080D100BF1EB9012004B0BDE8F081002085
:10593000FAE72DE9F84306464FF00507DFF8C8837C
:105940003DE04FF4806000904FF01400FBF758F9F1
:105950006A46ED490120FDF78EFF044600980028B5
:1059600019D0032C17D1E9A001F0BCFA4FF00005C3
:1059700007E0E548415DAFF6DC6001F0B3FA05F100
:10598000010500988542F4D3AFF6EC6001F0AAFA65
:10599000E4A001F0A7FA22463946D2A0009B01F00C
:1059A000A1FA009858B1032C09D131464046009A1B
:1059B000FEF7B1FD18B1E1A001F094FA03E0A7F100
:1059C00001000700BDD100BF0120BDE8F883012020
:1059D000704710B5DF4800F01BFD04462246DE4943
:1059E000DC48FEF783FE08B9002010BD0120FCE76B
:1059F00010B5DA4800F00CFD04462246D649D748D7
:105A0000FEF774FE08B9002010BD0120FCE770B558
:105A10000446D34800F0FCFC0546FEF760FE2A462B
:105A2000CD49CF48FEF762FE002871D101222C211A
:105A3000CC48FEF74FFDCC4908600846006808B91D
:105A4000012070BDC8480068A0F10100C649086087
:105A500008460068007820704FF002024FF02C01D9
:105A6000C048FEF737FDC04908600846006808B91D
:105A70000120E6E7BC4800684078A0F130004FF410
:105A80007A7100FB01F0B84909688978A1F1300109
:105A900001EBC10202EB011100EB8101B248006889
:105AA000C078A0F1300000EB800001EB4001AE486F
:105AB00000680079A0F1300008446080AA480068BE
:105AC000A0F10300A8490860084600680078302863
:105AD0001FDB08460068007839281ADC0846006891
